:020000040000FA
:0400000033EF00F0EA
:100008005482FACF01F0FBCF02F0D9CF03F0DACF58
:1000180004F0F2AC1AD09DB89EA808D001D815D02B
:100028000500FA6E4B50FD6E4C500AD09DBA9EAA40
:100038000CD001D80AD00500FA6E4950FD6E4A501E
:10004800FE6EF850FF6EFA50120004C0DAFF03C0CB
:10005800D9FF02C0FBFF01C0FAFF54921100E4EF80
:1000680004F0150E3A6E000E3B6E90D1250E421824
:10007800D8B409D011C0D9FF12C0DAFF42C0DFFFDF
:10008800114A122A83D1000E416E000E406E000EF6
:100098003F6E03D03F84134A142A13C0F6FF14C0DE
:1000A800F7FF0800F550300AD8B4F4D713C0F6FFAC
:1000B80014C0F7FF0800F55030EC06F0D8A035D092
:1000C800000E416E000E406E40C005F041C006F0C3
:1000D800000E086E0A0E076EE9EC05F005C040F048
:1000E80006C041F0D00E356EFF0E366E13C0F6FF17
:1000F80014C0F7FF0800F550376E386A35503726B8
:10010800365038223750402638504122134A142A94
:1001180013C0F6FF14C0F7FF0800F55030EC06F0E6
:10012800D8A003D0D1D73F8E17D013C0F6FF14C084
:10013800F7FF134A142A0800F5CF42F04250000A8C
:10014800D8B430D1640AD8B407D00D0AD8B404D0D2
:10015800110AD8B4E8D71AD13FBE15D03AC0D9FF92
:100168003BC0DAFFDECF3DF0DDCF3EF0020E3A268F
:10017800000E3B223EAE44D0030E3F123D6C3E1EA5
:10018800D8B03E2A3DD03AC0D9FF3BC0DAFFDECF17
:100198003DF0DDCF3EF0020E3A26000E3B2230D075
:1001A800010E426E4250020D370EF324F66E7E0E9B
:1001B800F420F76E0900F5503D5C0900F5503E58F3
:1001C800D8A026D0422A050E4218D8B421D0EAD7A2
:1001D800010E426E4250020D410EF324F66E7E0E61
:1001E800F420F76E0900F5503D5C0900F5503E58C3
:1001F800D8A00ED0422A040E4218D8B409D0EAD7A3
:100208003F50800B000AD8B4CBD7800AD8B4E0D7C7
:1002180040504110D8B409D03FC035F0030E351610
:10022800D8B403D04006D8A041064250356E366A8D
:100238004050355C3650800A376E4150800A375836
:10024800D8B005D04250405E000E415A04D0000E8E
:10025800416E000E406E3FA41ED03FC035F0030E25
:100268003516D8B408D011C0D9FF12C0DAFF2D0E48
:10027800DF6E114A122A40504110D8B42DD011C057
:10028800D9FF12C0DAFF300EDF6E114A122A40067B
:10029800D8A04106F0D740504110D8B40FD011C0B3
:1002A800D9FF12C0DAFF200EDF6E114A122A40066B
:1002B800D8A0410640504110D8A4F1D73FC035F02E
:1002C800030E3516D8B408D011C0D9FF12C0DAFF12
:1002D8002D0EDF6E114A122A42C03CF053D03C501A
:1002E800020D370EF324F66E7E0EF420F76E090029
:1002F800F5CF07F00A00F5CF08F03DC005F03EC085
:1003080006F00DEC05F005C00CF006C00DF0000E6F
:100318000F6E0A0E0E6E5BEC05F00C50300F426E3D
:1003280029D03DC005F03EC006F03C50020D410EFC
:10033800F324F66E7E0EF420F76E0900F5CF07F071
:100348000A00F5CF08F00DEC05F005500F0B396EDB
:10035800880E3924F66EF76A7F0EF7220800F5CF6B
:1003680042F008D03F50800B000AD8B4B8D7800AB2
:10037800D8B4D7D711C0D9FF12C0DAFF42C0DFFF07
:10038800114A122A3C063C28D8A4ECD713C0F6FF21
:1003980014C0F7FF134A142A0800F5CF42F0425060
:1003A800D8A464D611C0D9FF12C0DAFF000EDF6EE0
:1003B8001200000E066E640E056E0EEC06F0E30EDB
:1003C800066E7F0E076E69EC04F0030E066EE80EEB
:1003D800056E0EEC06F0C80E066E7F0E076E69EC11
:1003E80004F0FA0E0C6E7F0E0D6E22EC04F0470E30
:1003F800066E7F0E076E69EC04F0FA0E0C6E7F0E27
:100408000D6E22EC04F00009D8A4FFD7010E0001FC
:10041800D66F7C0E116E010E126E120E136E7F0EC9
:10042800146ED6C015F0166A35EC00F07C0E066E18
:10043800010E076E69EC04F0FA0E0C6E7F0E0D6E5D
:1004480022EC04F00001D62B470ED665E2D77C0ECD
:10045800116E010E126E760E136E7F0E146E35EC51
:1004680000F07C0E066E010E076E69EC04F0FA0EC1
:100478000C6E7F0E0D6E22EC04F00009D8A4FFD795
:100488007C0E116E010E126E600E136E7F0E146ECE
:10049800130E166E880E156E35EC00F07C0E066E87
:1004A800010E076E69EC04F0FA0E0C6E7F0E0D6EED
:1004B80022EC04F00009D8A4FFD7F7C0D2F0F8C0A6
:1004C800D3F0F9C0D4F0FAC0D5F020EEE7F010EE82
:1004D800B2F00F0EDBCFE3FFE806FCE220EED7F028
:1004E80010EEC2F00F0EDBCFE3FFE806FCE27C0E55
:1004F800116E010E126EEF0E136E7E0E146ED2C0C8
:1005080015F0166AD3C017F0186AD4C019F01A6A21
:10051800D5C01BF01C6A35EC00F07C0E066E010E8F
:10052800076E69EC04F0FA0E0C6E7F0E0D6E22EC6D
:1005380004F00009D8A4FFD77C0E116E010E126ECC
:100548009C0E136E7E0E146EB2C015F0166AB3C000
:1005580017F0186AB4C019F01A6AB5C01BF01C6A03
:10056800B6C01DF01E6AB7C01FF0206AB8C021F0DF
:10057800226AB9C023F0246ABAC025F0266ABBC033
:1005880027F0286ABCC029F02A6ABDC02BF02C6A63
:10059800BEC02DF02E6ABFC02FF0306AC0C031F047
:1005A800326AC1C033F0346A35EC00F07C0E066E56
:1005B800010E076E69EC04F0FA0E0C6E7F0E0D6EDC
:1005C80022EC04F00009D8A4FFD77C0E116E010EAE
:1005D800126E490E136E7E0E146EC2C015F0166AA6
:1005E800C3C017F0186AC4C019F01A6AC5C01BF056
:1005F8001C6AC6C01DF01E6AC7C01FF0206AC8C0AA
:1006080021F0226AC9C023F0246ACAC025F0266AEC
:10061800CBC027F0286ACCC029F02A6ACDC02BF0BD
:100628002C6ACEC02DF02E6ACFC02FF0306AD0C011
:1006380031F0326AD1C033F0346A35EC00F07C0E08
:10064800066E010E076E69EC04F0FA0E0C6E7F0E52
:100658000D6E22EC04F00009D8A4FFD7AA0E066E8E
:100668007F0E076E69EC04F0FA0E0C6E7F0E0D6EAD
:1006780022EC04F00009D8A4FFD7EF0E066E7F0E17
:10068800076E69EC04F0FA0E0C6E7F0E0D6E22EC0C
:1006980004F00009D8A4FFD7030E066EE80E056E15
:1006A8000EEC06F0C80E066E7F0E076E69EC04F0BD
:1006B800FA0E0C6E7F0E0D6E22EC04F0030E066E21
:1006C800E80E056E0EEC06F0B90E066E7F0E076E8C
:1006D80069EC04F0FA0E0C6E7F0E0D6E22EC04F03D
:1006E8000009D8A4FFD7270E066E100E056E0EEC73
:1006F80006F012004AEC06F0F28EF28C070E066E37
:10070800D00E056E0EEC06F0DDEC01F0D60E066E8E
:100718007F0E076E69EC04F0FA0E0C6E7F0E0D6EFC
:1007280022EC04F0000E066EC80E056E0EEC06F004
:10073800990E066E7F0E076E69EC04F0FA0E0C6EC9
:100748007F0E0D6E22EC04F0000E066EC80E056ECC
:100758000EEC06F0AA0E066E7F0E076E69EC04F02A
:10076800FA0E0C6E7F0E0D6E22EC04F0030E066E70
:10077800E80E056E0EEC06F02D0E066E7F0E076E67
:1007880069EC04F0FA0E0C6E7F0E0D6E22EC04F08C
:100798000009D8A4FFD7270E066E100E056E0EECC2
:1007A80006F0B4D7000E5024D96EDA6A010EDA22A8
:1007B800000EDF6EABA414D0000E5024D96EDA6A96
:1007C800010EDA220101DF8201D80AD00500FA6E93
:1007D8004750FD6E4850FE6EF850FF6EFA501200FA
:1007E800ABA214D0000E5024D96EDA6A010EDA22B8
:1007F8000101DF8401D80AD00500FA6E4550FD6E6C
:100808004650FE6EF850FF6EFA501200000E50244B
:10081800D96EDA6A010EDA22DF50D8B40CD001D8CA
:1008280012000500FA6E4350FD6E4450FE6EF850FB
:10083800FF6EFA50120020EC06F01200000E0001C4
:10084800B16F000EB06F9BEC05F00E6E600E0001EC
:10085800B025D96E000EB121DA6E0EC0DFFFB04BA5
:10086800B12BFF0E0E6EFF0E0F6EB0C010F0B1C0B0
:1008780011F00E5010260F501122600E1024D96E60
:10088800000E1120DA6E0A0EDE18D8A4DCD7600E2E
:10089800056E000E066E0CC007F00DC008F036ECB1
:1008A80005F005500610D8B408D0000E066E140ED8
:1008B800056E0EEC06F0000E1200000E066E140E09
:1008C800056E0EEC06F0010E1200000E0D6E000E05
:1008D8000C6E1AD00C500624086E0D500720096EB5
:1008E80008C0F6FF09C0F7FFF86A070EF76403D0DF
:1008F8000800F55005D0F6CFE1FFF7CFE2FFE7504B
:10090800B9EC05F00C4A0D2AFF0E086EFF0E096EB1
:100918000C5006240A6E0D5007200B6E08500A264C
:1009280009500B220AC0F6FF0BC0F7FFF86A070E42
:10093800F76403D00800F55005D0F6CFE1FFF7CFF4
:10094800E2FFE7500A0AD8B41200C4D79D9AAC0E49
:10095800056E070E066E58EC06F09D98A80E056EFB
:100968000B0E066E53EC06F0080EB86E900EAB6ECA
:10097800240EAC6ECF0EAF6E000EB06EE80E056E94
:100988000C0E066E62EC06F0D80E056E0C0E066EA6
:100998005DEC06F0DE0E056E0C0E066E67EC06F0DA
:1009A800000E4D6E000E536E000E526E3E0E516ECE
:1009B800000E506E000E4F6E000E4E6E9D8A120095
:1009C800F80EF66E0B0EF76E000EF86E00EED7F00E
:1009D80010EE24F00900F5CFEEFFE550E150FAE102
:1009E80002EE00F03E0EEE6AE806FDE101EE00F0D0
:1009F800CC0EEE6AE806FDE100EE43F0110EEE6A59
:100A0800E806FDE154905492000EF86E00017EEF66
:100A180003F0000E0A6E000E096E07500810D8B4D5
:100A28001CD0010E0B6E04D0D890073608360B2A5E
:100A380008AEFAD7D89009360A360750055C085030
:100A48000658D8A005D00750055E0850065A0980F8
:100A5800D890083207320B2EEDD709C005F00AC02E
:100A680006F0120004D0054A062A074A082A07C0D9
:100A7800F6FF08C0F7FF0800F5CF09F005C0D9FF59
:100A880006C0DAFFDF500A6E09500A5C0B6E0B5085
:100A9800D8A407D005C0D9FF06C0DAFFDF50D8A414
:100AA800E2D70B50056E066A05BE060612000E5008
:100AB8000F10D8B418D0010E106E04D0D8900E368E
:100AC8000F36102A0FAEFAD70E500C5C0F500D5887
:100AD800D8A004D00E500C5E0F500D5AD8900F328B
:100AE8000E32102EF1D70CC00CF00DC00DF0120014
:100AF800000E8D6E000E8C6E000E896E200E8A6EB2
:100B0800040E8B6E070E966E92689368870E946E2D
:100B180095680F015E69040E5D6F1F0E5C6F070E0E
:100B28005F6F2F0E5B6F000E856EF18E12004E50B8
:100B3800D8B4FDD7000E4F24D96EDA6A010EDA2236
:100B4800DF504D6E000E4F24D96EDA6A020EDA229B
:100B5800DF50056E4F2A3D0E4F6402D0000E4F6ED7
:100B68009D9A4E069D8A05501200056E5150D8B4C4
:100B7800FDD79DB803D005C0ADFF10D09D983E0E9F
:100B88005324D96EDA6A010EDA2205C0DFFF532A30
:100B98003D0E536402D0000E536E51069D8812001C
:100BA8003E0E516010D03E0E5224D96EDA6A010E04
:100BB800DA22DF50AD6E522A3D0E526402D0000E8A
:100BC800526E512A12009D98120005500702F3CF69
:100BD80009F0F4CF0AF005500802F3500A2606502F
:100BE8000702F3500A2609C005F00AC006F01200F1
:100BF800FCE11EAA490FFBF519D4E2E58F81DD85DA
:100C0800EFFE1DAD76A58126A059F59CA4FC749A2B
:100C18002700004608D0100E076E940EE82EFED767
:100C2800072EFCD700D00506D8A006060528F3E154
:100C38000628D8B41200EFD7000E5024D96EDA6A0D
:100C4800020EDA22AECFDFFF502A3D0E506402D0EA
:100C5800000E506E4E2A1200076E000E066E3A0EF7
:100C6800076005D02F0E076402D0010E066E06C07D
:100C780005F005301200700ED36E000ED26E800E95
:100C88009B6E000EB56ED2BE1200FDD772EC06F058
:100C98007CEC05F03FEC06F0AAEC04F0120005C06D
:100CA8004BF006C04CF0120005C049F006C04AF0EF
:100CB800120005C045F006C046F0120005C047F016
:100CC80006C048F0120005C043F006C044F0120008
:100CD800AB98AB88120020EC06F01200D09E1200F0
:020CE8001200F8
:107E36000001000A006400E803102701001000009A
:107E46000100106D616320736574206E776B736B30
:107E560065792025303278253032782530327825FC
:107E66003032782530327825303278253032782510
:107E76003032782530327825303278253032782500
:107E860030327825303278253032782530327825F0
:107E96003032780D0A006D6163207365742061705D
:107EA60070736B657920253032782530327825302D
:107EB60032782530327825303278253032782530C0
:107EC60032782530327825303278253032782530B0
:107ED60032782530327825303278253032782530A0
:107EE6003278253032780D0A006D6163207365742F
:107EF60020646576616464722025303278253032DC
:107F06007825303278253032780D0A006D6163208D
:107F160073657420636820737461747573202564B7
:107F2600206F66660D0A006D616320747820756E99
:107F3600636E6620312033333335333533360D0ADD
:107F4600006D6163207365742063682073746174C7
:107F560075732030206F6E0D0A006D6163207365A6
:107F66007420727864656C6179312025640D0A008D
:107F76006D61632073657420616472206F66660D9F
:107F86000A0030313233343536373839616263644A
:107F9600656600726164696F206765742066726544
:107FA600710D0A006D61632073657420647220325E
:107FB6000D0A006D6163206A6F696E206162700D43
:107FC6000A0073797320676574207664640D0A006D
:107FD6006D6163206765742064720D0A007379739E
:107FE6002072657365740D0A006D61632073617696
:0A7FF600650D0A004F4B0D0A000054
:020000040020DA
:08000000FFFFFFFFFFFFFFFF00
:020000040030CA
:0E00000023285F3CFFD385FF0FC00FE00F40A9
:00000001FF
